{
  "contractName": "DelegateV1",
  "abi": [
    {
      "constant": false,
      "inputs": [
        {
          "name": "num",
          "type": "uint256"
        }
      ],
      "name": "setNumberOfOwners",
      "outputs": [],
      "payable": false,
      "stateMutability": "nonpayable",
      "type": "function"
    },
    {
      "constant": true,
      "inputs": [],
      "name": "getNumberOfOwners",
      "outputs": [
        {
          "name": "",
          "type": "uint256"
        }
      ],
      "payable": false,
      "stateMutability": "view",
      "type": "function"
    }
  ],
  "bytecode": "0x608060405234801561001057600080fd5b50610230806100206000396000f30060806040526004361061004b5763ffffffff7c0100000000000000000000000000000000000000000000000000000000600035041663b85e5b748114610050578063f03cfed114610077575b600080fd5b34801561005c57600080fd5b50610065610091565b60408051918252519081900360200190f35b34801561008357600080fd5b5061008f600435610155565b005b60008054604080517fbd02d0f50000000000000000000000000000000000000000000000000000000081527f746f74616c0000000000000000000000000000000000000000000000000000006004820152905173ffffffffffffffffffffffffffffffffffffffff9092169163bd02d0f59160248082019260209290919082900301818787803b15801561012457600080fd5b505af1158015610138573d6000803e3d6000fd5b505050506040513d602081101561014e57600080fd5b5051905090565b60008054604080517fe2a4853a0000000000000000000000000000000000000000000000000000000081527f746f74616c000000000000000000000000000000000000000000000000000000600482015260248101859052905173ffffffffffffffffffffffffffffffffffffffff9092169263e2a4853a9260448084019382900301818387803b1580156101e957600080fd5b505af11580156101fd573d6000803e3d6000fd5b50505050505600a165627a7a723058205cfdd773f7b58b2070aeb84459ddd835ac8fb677428c7c833b4c02c7cfb8041d0029",
  "source": "pragma solidity ^0.4.18;\n\nimport \"./SafeMath.sol\";\nimport \"./StorageState.sol\";\n\n\ncontract DelegateV1 is StorageState {\n    using SafeMath for uint256;\n    \n    function setNumberOfOwners(uint256 num) public {\n        _storage.setUint(\"total\", num);\n    }\n\n    function getNumberOfOwners() view public  returns (uint256) {\n        return _storage.getUint(\"total\");\n    }\n\n}",
  "sourcePath": "/home/bd/Downloads/upradeableToken-master/contracts/DelegateV1.sol",
  "compiler": {
    "name": "solc",
    "version": "0.4.24+commit.e67f0147.Emscripten.clang"
  },
  "schemaVersion": "2.0.1",
  "updatedAt": "2018-06-26T16:53:30.470Z"
}