{
  "contractName": "DelegateV2",
  "abi": [
    {
      "constant": false,
      "inputs": [
        {
          "name": "num",
          "type": "uint256"
        }
      ],
      "name": "setNumberOfOwners",
      "outputs": [],
      "payable": false,
      "stateMutability": "nonpayable",
      "type": "function"
    },
    {
      "constant": true,
      "inputs": [],
      "name": "getNumberOfOwners",
      "outputs": [
        {
          "name": "",
          "type": "uint256"
        }
      ],
      "payable": false,
      "stateMutability": "view",
      "type": "function"
    }
  ],
  "bytecode": "0x608060405234801561001057600080fd5b50610311806100206000396000f30060806040526004361061004b5763ffffffff7c0100000000000000000000000000000000000000000000000000000000600035041663b85e5b748114610050578063f03cfed114610077575b600080fd5b34801561005c57600080fd5b50610065610091565b60408051918252519081900360200190f35b34801561008357600080fd5b5061008f600435610155565b005b60008054604080517fbd02d0f50000000000000000000000000000000000000000000000000000000081527f746f74616c0000000000000000000000000000000000000000000000000000006004820152905173ffffffffffffffffffffffffffffffffffffffff9092169163bd02d0f59160248082019260209290919082900301818787803b15801561012457600080fd5b505af1158015610138573d6000803e3d6000fd5b505050506040513d602081101561014e57600080fd5b5051905090565b60008054604080517f21f8a7210000000000000000000000000000000000000000000000000000000081527f6f776e65720000000000000000000000000000000000000000000000000000006004820152905173ffffffffffffffffffffffffffffffffffffffff909216926321f8a721926024808401936020939083900390910190829087803b1580156101e957600080fd5b505af11580156101fd573d6000803e3d6000fd5b505050506040513d602081101561021357600080fd5b505173ffffffffffffffffffffffffffffffffffffffff16331461023657600080fd5b60008054604080517fe2a4853a0000000000000000000000000000000000000000000000000000000081527f746f74616c000000000000000000000000000000000000000000000000000000600482015260248101859052905173ffffffffffffffffffffffffffffffffffffffff9092169263e2a4853a9260448084019382900301818387803b1580156102ca57600080fd5b505af11580156102de573d6000803e3d6000fd5b50505050505600a165627a7a72305820b005b47334bdff8abb1c8e45aa4362d8f5af3dfa0c9ebdd6f2a61eb8bb23ff9c0029",
  "source": "pragma solidity ^0.4.18;\n\nimport \"./DelegateV1.sol\";\nimport \"./StorageState.sol\";\nimport \"./Ownable.sol\";\ncontract DelegateV2 is StorageState {\n\n    modifier onlyOwner() {\n        require(msg.sender == _storage.getAddress(\"owner\"));\n        _;\n    }\n\n    function setNumberOfOwners(uint num) public   onlyOwner {\n        _storage.setUint(\"total\", num);\n    }\n\n    function getNumberOfOwners() view public  returns (uint) {\n        return _storage.getUint(\"total\");\n    }\n\n}",
  "sourcePath": "/home/bd/Downloads/upradeableToken-master/contracts/DelegateV2.sol",
  "compiler": {
    "name": "solc",
    "version": "0.4.24+commit.e67f0147.Emscripten.clang"
  },
  "schemaVersion": "2.0.1",
  "updatedAt": "2018-06-26T16:53:30.471Z"
}