{
  "contractName": "KeyValueStorage",
  "abi": [
    {
      "constant": true,
      "inputs": [
        {
          "name": "key",
          "type": "bytes32"
        }
      ],
      "name": "getAddress",
      "outputs": [
        {
          "name": "",
          "type": "address"
        }
      ],
      "payable": false,
      "stateMutability": "view",
      "type": "function"
    },
    {
      "constant": true,
      "inputs": [
        {
          "name": "key",
          "type": "bytes32"
        }
      ],
      "name": "getUint",
      "outputs": [
        {
          "name": "",
          "type": "uint256"
        }
      ],
      "payable": false,
      "stateMutability": "view",
      "type": "function"
    },
    {
      "constant": true,
      "inputs": [
        {
          "name": "key",
          "type": "bytes32"
        }
      ],
      "name": "getBool",
      "outputs": [
        {
          "name": "",
          "type": "bool"
        }
      ],
      "payable": false,
      "stateMutability": "view",
      "type": "function"
    },
    {
      "constant": true,
      "inputs": [
        {
          "name": "owner",
          "type": "address"
        },
        {
          "name": "spender",
          "type": "address"
        }
      ],
      "name": "getAllowance",
      "outputs": [
        {
          "name": "",
          "type": "uint256"
        }
      ],
      "payable": false,
      "stateMutability": "view",
      "type": "function"
    },
    {
      "constant": false,
      "inputs": [
        {
          "name": "key",
          "type": "bytes32"
        },
        {
          "name": "value",
          "type": "address"
        }
      ],
      "name": "setAddress",
      "outputs": [],
      "payable": false,
      "stateMutability": "nonpayable",
      "type": "function"
    },
    {
      "constant": false,
      "inputs": [
        {
          "name": "key",
          "type": "bytes32"
        },
        {
          "name": "value",
          "type": "uint256"
        }
      ],
      "name": "setUint",
      "outputs": [],
      "payable": false,
      "stateMutability": "nonpayable",
      "type": "function"
    },
    {
      "constant": false,
      "inputs": [
        {
          "name": "key",
          "type": "bytes32"
        },
        {
          "name": "value",
          "type": "bool"
        }
      ],
      "name": "setBool",
      "outputs": [],
      "payable": false,
      "stateMutability": "nonpayable",
      "type": "function"
    },
    {
      "constant": false,
      "inputs": [
        {
          "name": "owner",
          "type": "address"
        },
        {
          "name": "spender",
          "type": "address"
        },
        {
          "name": "value",
          "type": "uint256"
        }
      ],
      "name": "setAllowance",
      "outputs": [],
      "payable": false,
      "stateMutability": "nonpayable",
      "type": "function"
    },
    {
      "constant": false,
      "inputs": [
        {
          "name": "key",
          "type": "bytes32"
        }
      ],
      "name": "deleteAddress",
      "outputs": [],
      "payable": false,
      "stateMutability": "nonpayable",
      "type": "function"
    },
    {
      "constant": false,
      "inputs": [
        {
          "name": "key",
          "type": "bytes32"
        }
      ],
      "name": "deleteUint",
      "outputs": [],
      "payable": false,
      "stateMutability": "nonpayable",
      "type": "function"
    },
    {
      "constant": false,
      "inputs": [
        {
          "name": "key",
          "type": "bytes32"
        }
      ],
      "name": "deleteBool",
      "outputs": [],
      "payable": false,
      "stateMutability": "nonpayable",
      "type": "function"
    }
  ],
  "bytecode": "0x608060405234801561001057600080fd5b5061042f806100206000396000f3006080604052600436106100ae5763ffffffff7c01000000000000000000000000000000000000000000000000000000006000350416630af4187d81146100b35780630e14a376146100ec57806321f8a721146101065780632c62ff2d1461013a5780637ae1cfca14610152578063abfdcced1461017e578063bd02d0f51461019b578063ca446dd9146101b3578063da46098c146101d7578063e2a4853a14610201578063e2b202bf1461021c575b600080fd5b3480156100bf57600080fd5b506100da600160a060020a0360043581169060243516610234565b60408051918252519081900360200190f35b3480156100f857600080fd5b50610104600435610267565b005b34801561011257600080fd5b5061011e60043561029d565b60408051600160a060020a039092168252519081900360200190f35b34801561014657600080fd5b506101046004356102c3565b34801561015e57600080fd5b5061016a6004356102e6565b604080519115158252519081900360200190f35b34801561018a57600080fd5b506101046004356024351515610306565b3480156101a757600080fd5b506100da600435610333565b3480156101bf57600080fd5b50610104600435600160a060020a036024351661034e565b3480156101e357600080fd5b50610104600160a060020a0360043581169060243516604435610396565b34801561020d57600080fd5b506101046004356024356103ca565b34801561022857600080fd5b506101046004356103e7565b336000908152600360209081526040808320600160a060020a039586168452825280832093909416825291909152205490565b33600090815260016020908152604080832093835292905220805473ffffffffffffffffffffffffffffffffffffffff19169055565b3360009081526001602090815260408083209383529290522054600160a060020a031690565b33600090815260026020908152604080832093835292905220805460ff19169055565b336000908152600260209081526040808320938352929052205460ff1690565b33600090815260026020908152604080832094835293905291909120805460ff1916911515919091179055565b33600090815260208181526040808320938352929052205490565b33600090815260016020908152604080832094835293905291909120805473ffffffffffffffffffffffffffffffffffffffff1916600160a060020a03909216919091179055565b336000908152600360209081526040808320600160a060020a03968716845282528083209490951682529290925291902055565b336000908152602081815260408083209483529390529190912055565b33600090815260208181526040808320938352929052908120555600a165627a7a72305820d4660e6e8029026e0c24a4f14a8462007a330391ce30327e9575f81baa5ae9410029",
  "source": "pragma solidity ^0.4.18;\n\ncontract KeyValueStorage {\n\n    mapping(address => mapping(bytes32 => uint256)) _uintStorage;\n    mapping(address => mapping(bytes32 => address)) _addressStorage;\n    mapping(address => mapping(bytes32 => bool)) _boolStorage;\n    mapping(address => mapping (address => mapping(address => uint256)))  _allowanceStorage;\n\n    /**** Get Methods ***********/\n\n    function getAddress(bytes32 key) public view returns (address) {\n        return _addressStorage[msg.sender][key];\n    }\n\n    function getUint(bytes32 key) public view returns (uint) {\n        return _uintStorage[msg.sender][key];\n    }\n\n    function getBool(bytes32 key) public view returns (bool) {\n        return _boolStorage[msg.sender][key];\n    }\n    function  getAllowance(address owner,address spender) public view returns (uint) {\n        return _allowanceStorage[msg.sender][owner][spender];\n    }\n    /**** Set Methods ***********/\n\n    function setAddress(bytes32 key, address value) public {\n        _addressStorage[msg.sender][key] = value;\n    }\n\n    function setUint(bytes32 key, uint value) public {\n        _uintStorage[msg.sender][key] = value;\n    }\n\n    function setBool(bytes32 key, bool value) public {\n        _boolStorage[msg.sender][key] = value;\n    }\n    function setAllowance(address owner,address spender,uint value) public {\n        _allowanceStorage[msg.sender][owner][spender] = value;\n    }\n\n\n    \n    /**** Delete Methods ***********/\n\n    function deleteAddress(bytes32 key) public {\n        delete _addressStorage[msg.sender][key];\n    }\n\n    function deleteUint(bytes32 key) public {\n        delete _uintStorage[msg.sender][key];\n    }\n\n    function deleteBool(bytes32 key) public {\n        delete _boolStorage[msg.sender][key];\n    }\n\n}\n",
  "sourcePath": "/home/bd/Downloads/upradeableToken-master/contracts/KeyValueStorage.sol",
  "compiler": {
    "name": "solc",
    "version": "0.4.24+commit.e67f0147.Emscripten.clang"
  },
  "schemaVersion": "2.0.1",
  "updatedAt": "2018-06-26T16:58:45.921Z"
}