{
  "contractName": "Proxy",
  "abi": [
    {
      "constant": true,
      "inputs": [],
      "name": "_implementation",
      "outputs": [
        {
          "name": "",
          "type": "address"
        }
      ],
      "payable": false,
      "stateMutability": "view",
      "type": "function"
    },
    {
      "constant": false,
      "inputs": [
        {
          "name": "newOwner",
          "type": "address"
        }
      ],
      "name": "transferOwnership",
      "outputs": [],
      "payable": false,
      "stateMutability": "nonpayable",
      "type": "function"
    },
    {
      "inputs": [
        {
          "name": "storage_",
          "type": "address"
        },
        {
          "name": "_owner",
          "type": "address"
        }
      ],
      "payable": false,
      "stateMutability": "nonpayable",
      "type": "constructor"
    },
    {
      "payable": true,
      "stateMutability": "payable",
      "type": "fallback"
    },
    {
      "anonymous": false,
      "inputs": [
        {
          "indexed": true,
          "name": "implementation",
          "type": "address"
        }
      ],
      "name": "Upgraded",
      "type": "event"
    },
    {
      "anonymous": false,
      "inputs": [
        {
          "indexed": true,
          "name": "previousOwner",
          "type": "address"
        },
        {
          "indexed": true,
          "name": "newOwner",
          "type": "address"
        }
      ],
      "name": "OwnershipTransferred",
      "type": "event"
    },
    {
      "constant": true,
      "inputs": [],
      "name": "implementation",
      "outputs": [
        {
          "name": "",
          "type": "address"
        }
      ],
      "payable": false,
      "stateMutability": "view",
      "type": "function"
    },
    {
      "constant": false,
      "inputs": [
        {
          "name": "impl",
          "type": "address"
        }
      ],
      "name": "upgradeTo",
      "outputs": [],
      "payable": false,
      "stateMutability": "nonpayable",
      "type": "function"
    }
  ],
  "bytecode": "0x608060405234801561001057600080fd5b506040516040806103cc833981016040818152825160209093015160018054600160a060020a0319908116331790915560008054600160a060020a0380881691909316178082557fca446dd90000000000000000000000000000000000000000000000000000000086527f6f776e65720000000000000000000000000000000000000000000000000000006004870152828416602487015293519294939091169263ca446dd9926044808301939282900301818387803b1580156100d357600080fd5b505af11580156100e7573d6000803e3d6000fd5b5050505050506102d0806100fc6000396000f3006080604052600436106100615763ffffffff7c01000000000000000000000000000000000000000000000000000000006000350416633659cfe681146100de57806359679b0f146101015780635c60da1b14610132578063f2fde38b14610147575b6000606061006d610168565b9150600160a060020a038216151561008457600080fd5b6000368080601f0160208091040260200160405190810160405280939291908181526020018383808284378201915050505050509050600080825160208401855af43d604051816000823e8280156100da578282f35b8282fd5b3480156100ea57600080fd5b506100ff600160a060020a0360043516610177565b005b34801561010d57600080fd5b50610116610200565b60408051600160a060020a039092168252519081900360200190f35b34801561013e57600080fd5b50610116610168565b34801561015357600080fd5b506100ff600160a060020a036004351661020f565b600254600160a060020a031690565b600154600160a060020a0316331461018e57600080fd5b600254600160a060020a03828116911614156101a957600080fd5b6002805473ffffffffffffffffffffffffffffffffffffffff1916600160a060020a0383169081179091556040517fbc7cd75a20ee27fd9adebab32041f755214dbc6bffa90cc0225b39da2e5c2d3b90600090a250565b600254600160a060020a031681565b600154600160a060020a0316331461022657600080fd5b600160a060020a038116151561023b57600080fd5b600154604051600160a060020a038084169216907f8be0079c531659141344cd1fd0a4f28419497f9722a3daafe3b4186f6b6457e090600090a36001805473ffffffffffffffffffffffffffffffffffffffff1916600160a060020a03929092169190911790555600a165627a7a723058201d6c6cd1a813f103ca63c28d6a25643b69c7e5e7877730d76a2bdaab50d3df6b0029",
  "source": "pragma solidity ^0.4.24;\n\nimport \"./Ownable.sol\";\nimport \"./StorageState.sol\";\n\ncontract Proxy is StorageState, Ownable {\n\n    event Upgraded(\n      address indexed implementation\n    );\n\n    address public _implementation;\n    \n    constructor(KeyValueStorage storage_, address _owner) public {\n        _storage = storage_;\n        _storage.setAddress(\"owner\",_owner);\n    }\n\n    function implementation() public view returns (address) {\n        return _implementation;\n    }\n\n    function upgradeTo(address impl) public onlyOwner {\n        require(_implementation != impl);\n        _implementation = impl;\n        emit Upgraded(impl);\n    }\n\n\n    /*\n    delegatecall(gas, _impl, add(data, 0x20), mload(data), 0, 0);\n      In below function delegate call is calling code at\n      “_impl” address with the input “add(data,0x20)” \n      and with input memory size “mload(data)”, \n      delegate call will return 0 on error and 1 on success and result\n      of the fallback function is whatever will be returned by\n      the called contract function.\n\n      0x20 -> \n        \"first memory word (32 bytes = 0x20 bytes) is reserved for the length of the array,\n        so we need to step over this. Thus, _data[0] is at memory address _data + 0x20.\n        In the code, this looks like add(_data, 0x20)\"\n    \n      https://ethereum.stackexchange.com/questions/34529/understanding-solidity-inline-assembly-code\n    \n    \n    */\n\n    function () payable public {\n        address _impl = implementation();\n        require(_impl != address(0));\n        bytes memory data = msg.data;\n\n        assembly {\n          let result := delegatecall(gas, _impl, add(data, 0x20), mload(data), 0, 0)\n          let size := returndatasize\n          let ptr := mload(0x40)\n          \n          returndatacopy(ptr, 0, size)\n          \n          switch result\n            case 0 { \n              revert(ptr, size) \n            }\n          default { \n            return(ptr, size)\n          }\n        }\n    }\n\n}",
  "sourcePath": "/home/bd/Downloads/upradeableToken-master/contracts/Proxy.sol",
  "compiler": {
    "name": "solc",
    "version": "0.4.24+commit.e67f0147.Emscripten.clang"
  },
  "schemaVersion": "2.0.1",
  "updatedAt": "2018-06-26T16:58:45.918Z"
}