{
  "contractName": "KeyStore",
  "abi": [
    {
      "constant": true,
      "inputs": [
        {
          "name": "key",
          "type": "bytes32"
        }
      ],
      "name": "getUint",
      "outputs": [
        {
          "name": "",
          "type": "uint256"
        }
      ],
      "payable": false,
      "stateMutability": "view",
      "type": "function"
    },
    {
      "constant": false,
      "inputs": [
        {
          "name": "key",
          "type": "bytes32"
        },
        {
          "name": "value",
          "type": "uint256"
        }
      ],
      "name": "setUint",
      "outputs": [],
      "payable": false,
      "stateMutability": "nonpayable",
      "type": "function"
    }
  ],
  "bytecode": "0x608060405234801561001057600080fd5b50610144806100206000396000f30060806040526004361061004c576000357c0100000000000000000000000000000000000000000000000000000000900463ffffffff168063bd02d0f514610051578063e2a4853a14610096575b600080fd5b34801561005d57600080fd5b5061008060048036038101908080356000191690602001909291905050506100d1565b6040518082815260200191505060405180910390f35b3480156100a257600080fd5b506100cf6004803603810190808035600019169060200190929190803590602001909291905050506100f5565b005b60008060008360001916600019168152602001908152602001600020549050919050565b8060008084600019166000191681526020019081526020016000208190555050505600a165627a7a72305820f23eeee9ff40dd521d618be5143fed7627a275a66ee3054f816626cbc67dba1f0029",
  "source": "pragma solidity ^0.4.23;\n\ncontract KeyStore {\n\n  mapping(bytes32 => uint256) _uintStorage;\n\n  function getUint(bytes32 key) public view returns (uint) {\n    return _uintStorage[key];\n  }\n\n  function setUint(bytes32 key, uint value) public {\n    _uintStorage[key] = value;\n  }\n\n}\n",
  "sourcePath": "/home/bd/Desktop/myrepos/github/solidity-contract-migration/v1/contracts/KeyStore.sol",
  "compiler": {
    "name": "solc",
    "version": "0.4.24+commit.e67f0147.Emscripten.clang"
  },
  "schemaVersion": "2.0.1",
  "updatedAt": "2018-06-27T15:04:27.269Z"
}