{
  "contractName": "Proxy",
  "abi": [
    {
      "constant": true,
      "inputs": [],
      "name": "_implementation",
      "outputs": [
        {
          "name": "",
          "type": "address"
        }
      ],
      "payable": false,
      "stateMutability": "view",
      "type": "function"
    },
    {
      "constant": false,
      "inputs": [
        {
          "name": "newOwner",
          "type": "address"
        }
      ],
      "name": "transferOwnership",
      "outputs": [],
      "payable": false,
      "stateMutability": "nonpayable",
      "type": "function"
    },
    {
      "inputs": [
        {
          "name": "imp",
          "type": "address"
        }
      ],
      "payable": false,
      "stateMutability": "nonpayable",
      "type": "constructor"
    },
    {
      "payable": true,
      "stateMutability": "payable",
      "type": "fallback"
    },
    {
      "anonymous": false,
      "inputs": [
        {
          "indexed": true,
          "name": "previousOwner",
          "type": "address"
        },
        {
          "indexed": true,
          "name": "newOwner",
          "type": "address"
        }
      ],
      "name": "OwnershipTransferred",
      "type": "event"
    },
    {
      "constant": true,
      "inputs": [],
      "name": "implementation",
      "outputs": [
        {
          "name": "",
          "type": "address"
        }
      ],
      "payable": false,
      "stateMutability": "view",
      "type": "function"
    },
    {
      "constant": false,
      "inputs": [
        {
          "name": "impl",
          "type": "address"
        }
      ],
      "name": "upgradeTo",
      "outputs": [],
      "payable": false,
      "stateMutability": "nonpayable",
      "type": "function"
    }
  ],
  "bytecode": "0x608060405234801561001057600080fd5b506040516020806107af8339810180604052810190808051906020019092919050505061003b61011f565b604051809103906000f080158015610057573d6000803e3d6000fd5b506000806101000a81548173ffffffffffffffffffffffffffffffffffffffff021916908373ffffffffffffffffffffffffffffffffffffffff16021790555033600160006101000a81548173ffffffffffffffffffffffffffffffffffffffff021916908373ffffffffffffffffffffffffffffffffffffffff16021790555080600260006101000a81548173ffffffffffffffffffffffffffffffffffffffff021916908373ffffffffffffffffffffffffffffffffffffffff1602179055505061012f565b6040516101648061064b83390190565b61050d8061013e6000396000f300608060405260043610610062576000357c0100000000000000000000000000000000000000000000000000000000900463ffffffff1680633659cfe61461010857806359679b0f1461014b5780635c60da1b146101a2578063f2fde38b146101f9575b6000606061006e61023c565b9150600073ffffffffffffffffffffffffffffffffffffffff168273ffffffffffffffffffffffffffffffffffffffff16141515156100ac57600080fd5b6000368080601f0160208091040260200160405190810160405280939291908181526020018383808284378201915050505050509050600080825160208401855af43d604051816000823e8260008114610104578282f35b8282fd5b34801561011457600080fd5b50610149600480360381019080803573ffffffffffffffffffffffffffffffffffffffff169060200190929190505050610266565b005b34801561015757600080fd5b50610160610363565b604051808273ffffffffffffffffffffffffffffffffffffffff1673ffffffffffffffffffffffffffffffffffffffff16815260200191505060405180910390f35b3480156101ae57600080fd5b506101b761023c565b604051808273ffffffffffffffffffffffffffffffffffffffff1673ffffffffffffffffffffffffffffffffffffffff16815260200191505060405180910390f35b34801561020557600080fd5b5061023a600480360381019080803573ffffffffffffffffffffffffffffffffffffffff169060200190929190505050610389565b005b6000600260009054906101000a900473ffffffffffffffffffffffffffffffffffffffff16905090565b600160009054906101000a900473ffffffffffffffffffffffffffffffffffffffff1673ffffffffffffffffffffffffffffffffffffffff163373ffffffffffffffffffffffffffffffffffffffff161415156102c257600080fd5b8073ffffffffffffffffffffffffffffffffffffffff16600260009054906101000a900473ffffffffffffffffffffffffffffffffffffffff1673ffffffffffffffffffffffffffffffffffffffff161415151561031f57600080fd5b80600260006101000a81548173ffffffffffffffffffffffffffffffffffffffff021916908373ffffffffffffffffffffffffffffffffffffffff16021790555050565b600260009054906101000a900473ffffffffffffffffffffffffffffffffffffffff1681565b600160009054906101000a900473ffffffffffffffffffffffffffffffffffffffff1673ffffffffffffffffffffffffffffffffffffffff163373ffffffffffffffffffffffffffffffffffffffff161415156103e557600080fd5b600073ffffffffffffffffffffffffffffffffffffffff168173ffffffffffffffffffffffffffffffffffffffff161415151561042157600080fd5b8073ffffffffffffffffffffffffffffffffffffffff16600160009054906101000a900473ffffffffffffffffffffffffffffffffffffffff1673ffffffffffffffffffffffffffffffffffffffff167f8be0079c531659141344cd1fd0a4f28419497f9722a3daafe3b4186f6b6457e060405160405180910390a380600160006101000a81548173ffffffffffffffffffffffffffffffffffffffff021916908373ffffffffffffffffffffffffffffffffffffffff160217905550505600a165627a7a7230582099462724e346544efd6b7b6a92da1c25a37b02e0d3c42197384ba3468e134bfb0029608060405234801561001057600080fd5b50610144806100206000396000f30060806040526004361061004c576000357c0100000000000000000000000000000000000000000000000000000000900463ffffffff168063bd02d0f514610051578063e2a4853a14610096575b600080fd5b34801561005d57600080fd5b5061008060048036038101908080356000191690602001909291905050506100d1565b6040518082815260200191505060405180910390f35b3480156100a257600080fd5b506100cf6004803603810190808035600019169060200190929190803590602001909291905050506100f5565b005b60008060008360001916600019168152602001908152602001600020549050919050565b8060008084600019166000191681526020019081526020016000208190555050505600a165627a7a72305820f23eeee9ff40dd521d618be5143fed7627a275a66ee3054f816626cbc67dba1f0029",
  "source": "pragma solidity ^0.4.23;\n\nimport \"./StorableState.sol\";\nimport \"./Ownable.sol\";\n\ncontract Proxy is StorableState, Ownable {\n  address public _implementation;\n\n  constructor(address imp) public {\n    _implementation = imp;\n  }\n\n  function implementation() public view returns (address) {\n    return _implementation;\n  }\n  \n  function upgradeTo(address impl) public onlyOwner {\n    require(_implementation != impl);\n    _implementation = impl;\n  }\n   /*\n    delegatecall(gas, _impl, add(data, 0x20), mload(data), 0, 0);\n      In below function delegate call is calling code at\n      “_impl” address with the input “add(data,0x20)” \n      and with input memory size “mload(data)”, \n      delegate call will return 0 on error and 1 on success and result\n      of the fallback function is whatever will be returned by\n      the called contract function.\n\n      0x20 -> \n        \"first memory word (32 bytes = 0x20 bytes) is reserved for the length of the array,\n        so we need to step over this. Thus, _data[0] is at memory address _data + 0x20.\n        In the code, this looks like add(_data, 0x20)\"\n    \n      https://ethereum.stackexchange.com/questions/34529/understanding-solidity-inline-assembly-code\n    */\n\n    function () payable public {\n        address _impl = implementation();\n        require(_impl != address(0));\n        bytes memory data = msg.data;\n\n        assembly {\n          let result := delegatecall(gas, _impl, add(data, 0x20), mload(data), 0, 0)\n          let size := returndatasize\n          let ptr := mload(0x40)\n          \n          returndatacopy(ptr, 0, size)\n          \n          switch result\n            case 0 { \n              revert(ptr, size) \n            }\n          default { \n            return(ptr, size)\n          }\n        }\n    }\n}\n",
  "sourcePath": "/home/bd/Desktop/myrepos/github/solidity-contract-migration/v1/contracts/Proxy.sol",
  "compiler": {
    "name": "solc",
    "version": "0.4.24+commit.e67f0147.Emscripten.clang"
  },
  "schemaVersion": "2.0.1",
  "updatedAt": "2018-06-27T15:04:27.742Z"
}