{
  "contractName": "v1",
  "abi": [
    {
      "inputs": [],
      "payable": false,
      "stateMutability": "nonpayable",
      "type": "constructor"
    },
    {
      "constant": true,
      "inputs": [],
      "name": "getVersionNumber",
      "outputs": [
        {
          "name": "",
          "type": "uint256"
        }
      ],
      "payable": false,
      "stateMutability": "view",
      "type": "function"
    }
  ],
  "bytecode": "0x608060405261000c61014b565b604051809103906000f080158015610028573d6000803e3d6000fd5b506000806101000a81548173ffffffffffffffffffffffffffffffffffffffff021916908373ffffffffffffffffffffffffffffffffffffffff16021790555034801561007457600080fd5b506000809054906101000a900473ffffffffffffffffffffffffffffffffffffffff1673ffffffffffffffffffffffffffffffffffffffff1663e2a4853a60016040518263ffffffff167c010000000000000000000000000000000000000000000000000000000002815260040180807f76657273696f6e00000000000000000000000000000000000000000000000000815250602001828152602001915050600060405180830381600087803b15801561012e57600080fd5b505af1158015610142573d6000803e3d6000fd5b5050505061015b565b604051610164806102f983390190565b61018f8061016a6000396000f300608060405260043610610041576000357c0100000000000000000000000000000000000000000000000000000000900463ffffffff16806354255be014610046575b600080fd5b34801561005257600080fd5b5061005b610071565b6040518082815260200191505060405180910390f35b60008060009054906101000a900473ffffffffffffffffffffffffffffffffffffffff1673ffffffffffffffffffffffffffffffffffffffff1663bd02d0f56040518163ffffffff167c010000000000000000000000000000000000000000000000000000000002815260040180807f76657273696f6e000000000000000000000000000000000000000000000000008152506020019050602060405180830381600087803b15801561012357600080fd5b505af1158015610137573d6000803e3d6000fd5b505050506040513d602081101561014d57600080fd5b81019080805190602001909291905050509050905600a165627a7a72305820891f58b3fe9417721bd358fcc7048b80ef837498eddd2aafaf9f2607b46ac6aa0029608060405234801561001057600080fd5b50610144806100206000396000f30060806040526004361061004c576000357c0100000000000000000000000000000000000000000000000000000000900463ffffffff168063bd02d0f514610051578063e2a4853a14610096575b600080fd5b34801561005d57600080fd5b5061008060048036038101908080356000191690602001909291905050506100d1565b6040518082815260200191505060405180910390f35b3480156100a257600080fd5b506100cf6004803603810190808035600019169060200190929190803590602001909291905050506100f5565b005b60008060008360001916600019168152602001908152602001600020549050919050565b8060008084600019166000191681526020019081526020016000208190555050505600a165627a7a72305820f23eeee9ff40dd521d618be5143fed7627a275a66ee3054f816626cbc67dba1f0029",
  "source": "pragma solidity ^0.4.24;\n\nimport \"../StorableState.sol\";\n\ncontract v1 is StorableState {\n  constructor() public {\n      _state.setUint(\"version\", 1);\n  }\n\n  function getVersionNumber() view public  returns (uint256) {\n    return _state.getUint(\"version\");\n  }\n\n}\n",
  "sourcePath": "/home/bd/Desktop/myrepos/github/solidity-contract-migration/v1/contracts/migrations/v1.sol",
  "compiler": {
    "name": "solc",
    "version": "0.4.24+commit.e67f0147.Emscripten.clang"
  },
  "schemaVersion": "2.0.1",
  "updatedAt": "2018-06-27T14:28:40.633Z"
}