{
  "contractName": "v2",
  "abi": [
    {
      "inputs": [],
      "payable": false,
      "stateMutability": "nonpayable",
      "type": "constructor"
    },
    {
      "constant": true,
      "inputs": [],
      "name": "getVersion",
      "outputs": [
        {
          "name": "",
          "type": "uint256"
        }
      ],
      "payable": false,
      "stateMutability": "view",
      "type": "function"
    }
  ],
  "bytecode": "0x608060405234801561001057600080fd5b506000809054906101000a900473ffffffffffffffffffffffffffffffffffffffff1673ffffffffffffffffffffffffffffffffffffffff1663e2a4853a60026040518263ffffffff167c010000000000000000000000000000000000000000000000000000000002815260040180807f76657273696f6e00000000000000000000000000000000000000000000000000815250602001828152602001915050600060405180830381600087803b1580156100ca57600080fd5b505af11580156100de573d6000803e3d6000fd5b5050505061018f806100f16000396000f300608060405260043610610041576000357c0100000000000000000000000000000000000000000000000000000000900463ffffffff1680630d8e6e2c14610046575b600080fd5b34801561005257600080fd5b5061005b610071565b6040518082815260200191505060405180910390f35b60008060009054906101000a900473ffffffffffffffffffffffffffffffffffffffff1673ffffffffffffffffffffffffffffffffffffffff1663bd02d0f56040518163ffffffff167c010000000000000000000000000000000000000000000000000000000002815260040180807f76657273696f6e000000000000000000000000000000000000000000000000008152506020019050602060405180830381600087803b15801561012357600080fd5b505af1158015610137573d6000803e3d6000fd5b505050506040513d602081101561014d57600080fd5b81019080805190602001909291905050509050905600a165627a7a723058208cff3784504a2e7910dc5b233347d9d909691bbc708ae2fd9e32d7a77268a3b60029",
  "source": "pragma solidity ^0.4.24;\n\nimport \"../StorableState.sol\";\n\ncontract v2 is StorableState {\n  constructor() public {\n      _state.setUint(\"version\", 2);\n  }\n\n  function getVersion() view public  returns (uint256) {\n    return _state.getUint(\"version\");\n  }\n}\n",
  "sourcePath": "/home/bd/Desktop/myrepos/github/solidity-contract-migration/v1/contracts/migrations/v2.sol",
  "compiler": {
    "name": "solc",
    "version": "0.4.24+commit.e67f0147.Emscripten.clang"
  },
  "schemaVersion": "2.0.1",
  "updatedAt": "2018-06-27T13:53:08.364Z"
}